{
  "address": "0x5FbDB2315678afecb367f032d93F642f64180aa3",
  "abi": [
    {
      "inputs": [],
      "name": "callme",
      "outputs": [
        {
          "internalType": "address",
          "name": "",
          "type": "address"
        }
      ],
      "stateMutability": "view",
      "type": "function"
    },
    {
      "inputs": [
        {
          "internalType": "address[]",
          "name": "_addrs",
          "type": "address[]"
        }
      ],
      "name": "distribute",
      "outputs": [],
      "stateMutability": "nonpayable",
      "type": "function"
    },
    {
      "inputs": [],
      "name": "message",
      "outputs": [
        {
          "internalType": "string",
          "name": "",
          "type": "string"
        }
      ],
      "stateMutability": "view",
      "type": "function"
    },
    {
      "inputs": [
        {
          "internalType": "string",
          "name": "_message",
          "type": "string"
        }
      ],
      "name": "pay",
      "outputs": [],
      "stateMutability": "payable",
      "type": "function"
    }
  ],
  "transactionHash": "0xf06be02110ff5a7b4e57ce4e6a2719024a2e4f174e2086f0e49398aab5222b94",
  "args": [],
  "numDeployments": 1,
  "solcInputHash": "c65342a3d5fb3e014acd4b662898f2e5",
  "bytecode": "0x6080604052348015600f57600080fd5b506109518061001f6000396000f3fe60806040526004361061003f5760003560e01c80632b66d72e146100445780636138889b14610060578063a3c8e39314610089578063e21f37ce146100b4575b600080fd5b61005e600480360381019061005991906102cf565b6100df565b005b34801561006c57600080fd5b5061008760048036038101906100829190610372565b6100f5565b005b34801561009557600080fd5b5061009e6101ca565b6040516100ab9190610400565b60405180910390f35b3480156100c057600080fd5b506100c96101d2565b6040516100d691906104ab565b60405180910390f35b8181600091826100f092919061071d565b505050565b60008282905090506000814761010b919061081c565b905060005b828110156101c357600085858381811061012d5761012c61084d565b5b905060200201602081019061014291906108a8565b73ffffffffffffffffffffffffffffffffffffffff168360405161016590610906565b60006040518083038185875af1925050503d80600081146101a2576040519150601f19603f3d011682016040523d82523d6000602084013e6101a7565b606091505b50509050806101b557600080fd5b508080600101915050610110565b5050505050565b600033905090565b600080546101df90610536565b80601f016020809104026020016040519081016040528092919081815260200182805461020b90610536565b80156102585780601f1061022d57610100808354040283529160200191610258565b820191906000526020600020905b81548152906001019060200180831161023b57829003601f168201915b505050505081565b600080fd5b600080fd5b600080fd5b600080fd5b600080fd5b60008083601f84011261028f5761028e61026a565b5b8235905067ffffffffffffffff8111156102ac576102ab61026f565b5b6020830191508360018202830111156102c8576102c7610274565b5b9250929050565b600080602083850312156102e6576102e5610260565b5b600083013567ffffffffffffffff81111561030457610303610265565b5b61031085828601610279565b92509250509250929050565b60008083601f8401126103325761033161026a565b5b8235905067ffffffffffffffff81111561034f5761034e61026f565b5b60208301915083602082028301111561036b5761036a610274565b5b9250929050565b6000806020838503121561038957610388610260565b5b600083013567ffffffffffffffff8111156103a7576103a6610265565b5b6103b38582860161031c565b92509250509250929050565b600073ffffffffffffffffffffffffffffffffffffffff82169050919050565b60006103ea826103bf565b9050919050565b6103fa816103df565b82525050565b600060208201905061041560008301846103f1565b92915050565b600081519050919050565b600082825260208201905092915050565b60005b8381101561045557808201518184015260208101905061043a565b60008484015250505050565b6000601f19601f8301169050919050565b600061047d8261041b565b6104878185610426565b9350610497818560208601610437565b6104a081610461565b840191505092915050565b600060208201905081810360008301526104c58184610472565b905092915050565b600082905092915050565b7f4e487b7100000000000000000000000000000000000000000000000000000000600052604160045260246000fd5b7f4e487b7100000000000000000000000000000000000000000000000000000000600052602260045260246000fd5b6000600282049050600182168061054e57607f821691505b60208210810361056157610560610507565b5b50919050565b60008190508160005260206000209050919050565b60006020601f8301049050919050565b600082821b905092915050565b6000600883026105c97fffffffffffffffffffffffffffffffffffffffffffffffffffffffffffffffff8261058c565b6105d3868361058c565b95508019841693508086168417925050509392505050565b6000819050919050565b6000819050919050565b600061061a610615610610846105eb565b6105f5565b6105eb565b9050919050565b6000819050919050565b610634836105ff565b61064861064082610621565b848454610599565b825550505050565b600090565b61065d610650565b61066881848461062b565b505050565b5b8181101561068c57610681600082610655565b60018101905061066e565b5050565b601f8211156106d1576106a281610567565b6106ab8461057c565b810160208510156106ba578190505b6106ce6106c68561057c565b83018261066d565b50505b505050565b600082821c905092915050565b60006106f4600019846008026106d6565b1980831691505092915050565b600061070d83836106e3565b9150826002028217905092915050565b61072783836104cd565b67ffffffffffffffff8111156107405761073f6104d8565b5b61074a8254610536565b610755828285610690565b6000601f8311600181146107845760008415610772578287013590505b61077c8582610701565b8655506107e4565b601f19841661079286610567565b60005b828110156107ba57848901358255600182019150602085019450602081019050610795565b868310156107d757848901356107d3601f8916826106e3565b8355505b6001600288020188555050505b50505050505050565b7f4e487b7100000000000000000000000000000000000000000000000000000000600052601260045260246000fd5b6000610827826105eb565b9150610832836105eb565b925082610842576108416107ed565b5b828204905092915050565b7f4e487b7100000000000000000000000000000000000000000000000000000000600052603260045260246000fd5b610885816103df565b811461089057600080fd5b50565b6000813590506108a28161087c565b92915050565b6000602082840312156108be576108bd610260565b5b60006108cc84828501610893565b91505092915050565b600081905092915050565b50565b60006108f06000836108d5565b91506108fb826108e0565b600082019050919050565b6000610911826108e3565b915081905091905056fea2646970667358221220928a61c73ea6220fd77f2c243ca36e9688e553944869ecf9fb02f5ac2726690764736f6c634300081b0033",
  "devdoc": {
    "kind": "dev",
    "methods": {},
    "version": 1
  },
  "userdoc": {
    "kind": "user",
    "methods": {},
    "version": 1
  },
  "storageLayout": {
    "storage": [
      {
        "astId": 749,
        "contract": "contracts/Base.sol:BaseContract",
        "label": "message",
        "offset": 0,
        "slot": "0",
        "type": "t_string_storage"
      }
    ],
    "types": {
      "t_string_storage": {
        "encoding": "bytes",
        "label": "string",
        "numberOfBytes": "32"
      }
    }
  }
}